{"abi":[{"type":"function","name":"getSponsoredGas","inputs":[{"name":"user","type":"address","internalType":"address"}],"outputs":[{"name":"","type":"uint256","internalType":"uint256"}],"stateMutability":"view"},{"type":"function","name":"postOp","inputs":[{"name":"context","type":"bytes","internalType":"bytes"},{"name":"actualGasCost","type":"uint256","internalType":"uint256"}],"outputs":[],"stateMutability":"nonpayable"},{"type":"function","name":"sponsoredGas","inputs":[{"name":"","type":"address","internalType":"address"}],"outputs":[{"name":"","type":"uint256","internalType":"uint256"}],"stateMutability":"view"},{"type":"function","name":"validatePaymasterUserOp","inputs":[{"name":"userOp","type":"bytes","internalType":"bytes"},{"name":"requiredPreFund","type":"uint256","internalType":"uint256"}],"outputs":[{"name":"context","type":"bytes","internalType":"bytes"}],"stateMutability":"nonpayable"},{"type":"event","name":"GasRefunded","inputs":[{"name":"user","type":"address","indexed":true,"internalType":"address"},{"name":"gasAmount","type":"uint256","indexed":false,"internalType":"uint256"}],"anonymous":false},{"type":"event","name":"UserOperationValidated","inputs":[{"name":"user","type":"address","indexed":true,"internalType":"address"},{"name":"gasSponsored","type":"uint256","indexed":false,"internalType":"uint256"}],"anonymous":false}],"bytecode":{"object":"0x6080604052348015600f57600080fd5b506103fc8061001f6000396000f3fe608060405234801561001057600080fd5b506004361061004c5760003560e01c8063190f3b0c146100515780635ea910e9146100665780637c54ed961461008f578063cda06f76146100c6575b600080fd5b61006461005f366004610255565b6100e6565b005b610079610074366004610255565b6101ba565b60405161008691906102ce565b60405180910390f35b6100b861009d366004610334565b6001600160a01b031660009081526020819052604090205490565b604051908152602001610086565b6100b86100d4366004610334565b60006020819052908152604090205481565b6000806100f584860186610358565b91509150828110156101455760405162461bcd60e51b8152602060048201526015602482015274125b9cdd59999a58da595b9d081c1c994b599d5b99605a1b604482015260640160405180910390fd5b6001600160a01b03821660009081526020819052604081208054859283929161016f90849061039a565b90915550506040518181526001600160a01b038416907f667ad9c7167aea9bfcff8b321015abb0d8b77cf151a377e09e12b9017f9889fd9060200160405180910390a2505050505050565b3360008181526020819052604081208054606093928592916101dd9084906103b3565b90915550506040518381526001600160a01b038216907f6f20e7e0b842bc6a4ee93377f71742bb7d3714803c40b26bcce7dee4faa640f09060200160405180910390a2604080516001600160a01b03831660208201529081018490526060016040516020818303038152906040529150509392505050565b60008060006040848603121561026a57600080fd5b833567ffffffffffffffff81111561028157600080fd5b8401601f8101861361029257600080fd5b803567ffffffffffffffff8111156102a957600080fd5b8660208284010111156102bb57600080fd5b6020918201979096509401359392505050565b602081526000825180602084015260005b818110156102fc57602081860181015160408684010152016102df565b506000604082850101526040601f19601f83011684010191505092915050565b6001600160a01b038116811461033157600080fd5b50565b60006020828403121561034657600080fd5b81356103518161031c565b9392505050565b6000806040838503121561036b57600080fd5b82356103768161031c565b946020939093013593505050565b634e487b7160e01b600052601160045260246000fd5b818103818111156103ad576103ad610384565b92915050565b808201808211156103ad576103ad61038456fea2646970667358221220ddd4e8115263eec2da6bfc3145b833495f10fdff59835d267f6b7e0a02d09bba64736f6c634300081b0033","linkReferences":{}},"methodIdentifiers":{"getSponsoredGas(address)":"7c54ed96","postOp(bytes,uint256)":"190f3b0c","sponsoredGas(address)":"cda06f76","validatePaymasterUserOp(bytes,uint256)":"5ea910e9"},"id":20}