{"abi":[{"type":"function","name":"supportsInterface","inputs":[{"name":"interfaceId","type":"bytes4","internalType":"bytes4"}],"outputs":[{"name":"","type":"bool","internalType":"bool"}],"stateMutability":"pure"},{"type":"function","name":"validateSignature","inputs":[{"name":"challenge","type":"bytes32","internalType":"bytes32"},{"name":"signature","type":"bytes","internalType":"bytes"},{"name":"pubKey","type":"bytes32[2]","internalType":"bytes32[2]"}],"outputs":[{"name":"valid","type":"bool","internalType":"bool"}],"stateMutability":"view"}],"bytecode":{"object":"0x6080604052348015600f57600080fd5b506101af8061001f6000396000f3fe608060405234801561001057600080fd5b50600436106100365760003560e01c806301ffc9a71461003b5780639074726b14610062575b600080fd5b61004e6100493660046100b1565b61007a565b604051901515815260200160405180910390f35b61004e6100703660046100e2565b6001949350505050565b60006001600160e01b03198216639074726b60e01b14806100ab57506001600160e01b031982166301ffc9a760e01b145b92915050565b6000602082840312156100c357600080fd5b81356001600160e01b0319811681146100db57600080fd5b9392505050565b600080600080608085870312156100f857600080fd5b84359350602085013567ffffffffffffffff81111561011657600080fd5b8501601f8101871361012757600080fd5b803567ffffffffffffffff81111561013e57600080fd5b87602082840101111561015057600080fd5b60209190910193509150604085016080860187101561016e57600080fd5b93969295509093505056fea264697066735822122049fd22e855af36cb06ca3f973332c4e0a0225336ef21ae37163eee41618799de64736f6c634300081b0033","linkReferences":{}},"methodIdentifiers":{"supportsInterface(bytes4)":"01ffc9a7","validateSignature(bytes32,bytes,bytes32[2])":"9074726b"},"id":26}