{"abi":[{"type":"constructor","inputs":[{"name":"_publicKey","type":"bytes32[2]","internalType":"bytes32[2]"},{"name":"_privateKey","type":"bytes32","internalType":"bytes32"}],"stateMutability":"nonpayable"},{"type":"function","name":"addPassword","inputs":[{"name":"_validator","type":"address","internalType":"address"},{"name":"_signedHash","type":"bytes32","internalType":"bytes32"},{"name":"_signature","type":"bytes","internalType":"bytes"},{"name":"_password","type":"string","internalType":"string"},{"name":"_name","type":"string","internalType":"string"}],"outputs":[],"stateMutability":"nonpayable"},{"type":"function","name":"addPasswords","inputs":[{"name":"_validator","type":"address","internalType":"address"},{"name":"_signedHash","type":"bytes32","internalType":"bytes32"},{"name":"_signature","type":"bytes","internalType":"bytes"},{"name":"_passwords","type":"string[]","internalType":"string[]"},{"name":"_names","type":"string[]","internalType":"string[]"}],"outputs":[],"stateMutability":"nonpayable"},{"type":"function","name":"deletePassword","inputs":[{"name":"_validator","type":"address","internalType":"address"},{"name":"_signedHash","type":"bytes32","internalType":"bytes32"},{"name":"_signature","type":"bytes","internalType":"bytes"},{"name":"_name","type":"string","internalType":"string"}],"outputs":[],"stateMutability":"nonpayable"},{"type":"function","name":"getNames","inputs":[],"outputs":[{"name":"","type":"string[]","internalType":"string[]"}],"stateMutability":"view"},{"type":"function","name":"getPassword","inputs":[{"name":"_validator","type":"address","internalType":"address"},{"name":"_signedHash","type":"bytes32","internalType":"bytes32"},{"name":"_signature","type":"bytes","internalType":"bytes"},{"name":"_name","type":"string","internalType":"string"}],"outputs":[{"name":"","type":"string","internalType":"string"}],"stateMutability":"view"},{"type":"function","name":"getPasswords","inputs":[{"name":"_validator","type":"address","internalType":"address"},{"name":"_signedHash","type":"bytes32","internalType":"bytes32"},{"name":"_signature","type":"bytes","internalType":"bytes"}],"outputs":[{"name":"","type":"string[]","internalType":"string[]"}],"stateMutability":"view"},{"type":"function","name":"getPrivateKey","inputs":[{"name":"_validator","type":"address","internalType":"address"},{"name":"_signedHash","type":"bytes32","internalType":"bytes32"},{"name":"_signature","type":"bytes","internalType":"bytes"}],"outputs":[{"name":"","type":"bytes32","internalType":"bytes32"}],"stateMutability":"view"},{"type":"function","name":"supportsInterface","inputs":[{"name":"interfaceId","type":"bytes4","internalType":"bytes4"}],"outputs":[{"name":"","type":"bool","internalType":"bool"}],"stateMutability":"view"},{"type":"function","name":"validateSignature","inputs":[{"name":"signedHash","type":"bytes32","internalType":"bytes32"},{"name":"signature","type":"bytes","internalType":"bytes"},{"name":"pubKey","type":"bytes32[2]","internalType":"bytes32[2]"}],"outputs":[{"name":"valid","type":"bool","internalType":"bool"}],"stateMutability":"view"}],"bytecode":{"object":"0x608060405234801561001057600080fd5b50604051611bd8380380611bd883398101604081905261002f916100af565b61003c6000836002610046565b5060025550610133565b8260028101928215610074579160200282015b82811115610074578251825591602001919060010190610059565b50610080929150610084565b5090565b5b808211156100805760008155600101610085565b634e487b7160e01b600052604160045260246000fd5b600080606083850312156100c257600080fd5b83601f8401126100d157600080fd5b604080519081016001600160401b03811182821017156100f3576100f3610099565b806040525080604085018681111561010a57600080fd5b855b8181101561012457805183526020928301920161010c565b50519196919550909350505050565b611a96806101426000396000f3fe608060405234801561001057600080fd5b50600436106100935760003560e01c80636be45651116100665780636be45651146101095780639074726b1461011c5780639d579e4714610134578063a02380f214610155578063cd838f0f1461017557600080fd5b806301ffc9a71461009857806310d29b0b146100c15780635fc4249a146100d657806362169c09146100f6575b600080fd5b6100ac6100a6366004611148565b50600090565b60405190151581526020015b60405180910390f35b6100d46100cf3660046112f7565b61017d565b005b6100e96100e43660046113a3565b61050f565b6040516100b89190611449565b6100d46101043660046114ae565b61067b565b6100d461011736600461152f565b610baf565b6100ac61012a3660046115ce565b6000949350505050565b6101476101423660046113a3565b610e1b565b6040519081526020016100b8565b6101686101633660046114ae565b610eb6565b6040516100b89190611663565b6100e9611019565b604051639074726b60e01b81526001600160a01b03861690639074726b906101ae9087908790600090600401611676565b602060405180830381865afa1580156101cb573d6000803e3d6000fd5b505050506040513d601f19601f820116820180604052508101906101ef91906116c3565b6102145760405162461bcd60e51b815260040161020b906116e5565b60405180910390fd5b805182511461027a5760405162461bcd60e51b815260206004820152602c60248201527f4163636f756e743a2050617373776f72647320616e64206e616d6573206c656e60448201526b0cee8d040dad2e6dac2e8c6d60a31b606482015260840161020b565b60005b82518110156105075760408051602081019091526000905281517fc5d2460186f7233c927e7db2dcc703c0e500b653ca82273b7bfad8045d85a470906006908490849081106102ce576102ce611727565b60200260200101516040516102e3919061173d565b9081526040519081900360200181206102fb91611793565b6040518091039020146103505760405162461bcd60e51b815260206004820181905260248201527f4163636f756e743a2050617373776f726420616c726561647920657869737473604482015260640161020b565b600082828151811061036457610364611727565b6020026020010151511161038a5760405162461bcd60e51b815260040161020b90611808565b600383828151811061039e5761039e611727565b602090810291909101810151825460018101845560009384529190922001906103c7908261188e565b508281815181106103da576103da611727565b602002602001015160068383815181106103f6576103f6611727565b602002602001015160405161040b919061173d565b90815260200160405180910390209081610425919061188e565b50600482828151811061043a5761043a611727565b60209081029190910181015182546001810184556000938452919092200190610463908261188e565b506001600584838151811061047a5761047a611727565b602002602001015160405161048f919061173d565b908152602001604051809103902060006101000a81548160ff021916908315150217905550600160078383815181106104ca576104ca611727565b60200260200101516040516104df919061173d565b908152604051908190036020019020805491151560ff1990921691909117905560010161027d565b505050505050565b604051639074726b60e01b81526060906001600160a01b03851690639074726b906105439086908690600090600401611676565b602060405180830381865afa158015610560573d6000803e3d6000fd5b505050506040513d601f19601f8201168201806040525081019061058491906116c3565b6105a05760405162461bcd60e51b815260040161020b906116e5565b6003805480602002602001604051908101604052809291908181526020016000905b8282101561066e5783829060005260206000200180546105e190611759565b80601f016020809104026020016040519081016040528092919081815260200182805461060d90611759565b801561065a5780601f1061062f5761010080835404028352916020019161065a565b820191906000526020600020905b81548152906001019060200180831161063d57829003601f168201915b5050505050815260200190600101906105c2565b5050505090509392505050565b604051639074726b60e01b81526001600160a01b03851690639074726b906106ac9086908690600090600401611676565b602060405180830381865afa1580156106c9573d6000803e3d6000fd5b505050506040513d601f19601f820116820180604052508101906106ed91906116c3565b6107095760405162461bcd60e51b815260040161020b906116e5565b6040805160208101825260009052517fc5d2460186f7233c927e7db2dcc703c0e500b653ca82273b7bfad8045d85a4709060069061074890849061173d565b90815260405190819003602001812061076091611793565b6040518091039020036107b55760405162461bcd60e51b815260206004820181905260248201527f4163636f756e743a2050617373776f726420646f6573206e6f74206578697374604482015260640161020b565b60006006826040516107c7919061173d565b908152602001604051809103902080546107e090611759565b80601f016020809104026020016040519081016040528092919081815260200182805461080c90611759565b80156108595780601f1061082e57610100808354040283529160200191610859565b820191906000526020600020905b81548152906001019060200180831161083c57829003601f168201915b50505050509050600581604051610870919061173d565b9081526040519081900360200190205460ff166108e15760405162461bcd60e51b815260206004820152602960248201527f4163636f756e743a2050617373776f726420646f6573206e6f7420657869737460448201526820696e20617272617960b81b606482015260840161020b565b60005b6003548110156109bd5781805190602001206003828154811061090957610909611727565b906000526020600020016040516109209190611793565b6040518091039020036109b5576003805461093d9060019061194f565b8154811061094d5761094d611727565b906000526020600020016003828154811061096a5761096a611727565b9060005260206000200190816109809190611976565b50600380548061099257610992611a4a565b6001900381819060005260206000200160006109ae91906110f2565b90556109bd565b6001016108e4565b506006826040516109ce919061173d565b908152602001604051809103902060006109e891906110f2565b60006005826040516109fa919061173d565b908152604051908190036020018120805492151560ff19909316929092179091558290600790610a2b90839061173d565b9081526040519081900360200190205460ff16610a985760405162461bcd60e51b815260206004820152602560248201527f4163636f756e743a204e616d6520646f6573206e6f7420657869737420696e20604482015264617272617960d81b606482015260840161020b565b60005b600454811015610b7457818051906020012060048281548110610ac057610ac0611727565b90600052602060002001604051610ad79190611793565b604051809103902003610b6c5760048054610af49060019061194f565b81548110610b0457610b04611727565b9060005260206000200160048281548110610b2157610b21611727565b906000526020600020019081610b379190611976565b506004805480610b4957610b49611a4a565b600190038181906000526020600020016000610b6591906110f2565b9055610b74565b600101610a9b565b506000600782604051610b87919061173d565b908152604051908190036020019020805491151560ff19909216919091179055505050505050565b604051639074726b60e01b81526001600160a01b03861690639074726b90610be09087908790600090600401611676565b602060405180830381865afa158015610bfd573d6000803e3d6000fd5b505050506040513d601f19601f82011682018060405250810190610c2191906116c3565b610c3d5760405162461bcd60e51b815260040161020b906116e5565b6040805160208101825260009052517fc5d2460186f7233c927e7db2dcc703c0e500b653ca82273b7bfad8045d85a47090600690610c7c90849061173d565b908152604051908190036020018120610c9491611793565b604051809103902014610ce95760405162461bcd60e51b815260206004820181905260248201527f4163636f756e743a2050617373776f726420616c726561647920657869737473604482015260640161020b565b6000815111610d0a5760405162461bcd60e51b815260040161020b90611808565b600380546001810182556000919091527fc2575a0e9e593c00f959f8c92f12db2869c3395a3b0502d05e2516446f71f85b01610d46838261188e565b5081600682604051610d58919061173d565b90815260200160405180910390209081610d72919061188e565b50600480546001810182556000919091527f8a35acfbc15ff81a39ae7d344fd709f28e8600b4aa8c65c6b64bfe7fe36bd19b01610daf828261188e565b506001600583604051610dc2919061173d565b908152604051908190036020018120805492151560ff1990931692909217909155600190600790610df490849061173d565b908152604051908190036020019020805491151560ff199092169190911790555050505050565b604051639074726b60e01b81526000906001600160a01b03851690639074726b90610e4e90869086908690600401611676565b602060405180830381865afa158015610e6b573d6000803e3d6000fd5b505050506040513d601f19601f82011682018060405250810190610e8f91906116c3565b610eab5760405162461bcd60e51b815260040161020b906116e5565b506002549392505050565b604051639074726b60e01b81526060906001600160a01b03861690639074726b90610eea9087908790600090600401611676565b602060405180830381865afa158015610f07573d6000803e3d6000fd5b505050506040513d601f19601f82011682018060405250810190610f2b91906116c3565b610f475760405162461bcd60e51b815260040161020b906116e5565b6000825111610f685760405162461bcd60e51b815260040161020b90611808565b600682604051610f78919061173d565b90815260200160405180910390208054610f9190611759565b80601f0160208091040260200160405190810160405280929190818152602001828054610fbd90611759565b801561100a5780601f10610fdf5761010080835404028352916020019161100a565b820191906000526020600020905b815481529060010190602001808311610fed57829003601f168201915b50505050509050949350505050565b60606004805480602002602001604051908101604052809291908181526020016000905b828210156110e957838290600052602060002001805461105c90611759565b80601f016020809104026020016040519081016040528092919081815260200182805461108890611759565b80156110d55780601f106110aa576101008083540402835291602001916110d5565b820191906000526020600020905b8154815290600101906020018083116110b857829003601f168201915b50505050508152602001906001019061103d565b50505050905090565b5080546110fe90611759565b6000825580601f1061110e575050565b601f01602090049060005260206000209081019061112c919061112f565b50565b5b808211156111445760008155600101611130565b5090565b60006020828403121561115a57600080fd5b81356001600160e01b03198116811461117257600080fd5b9392505050565b80356001600160a01b038116811461119057600080fd5b919050565b634e487b7160e01b600052604160045260246000fd5b604051601f8201601f191681016001600160401b03811182821017156111d3576111d3611195565b604052919050565b600082601f8301126111ec57600080fd5b8135602083016000806001600160401b0384111561120c5761120c611195565b50601f8301601f1916602001611221816111ab565b91505082815285838301111561123657600080fd5b82826020830137600092810160200192909252509392505050565b600082601f83011261126257600080fd5b81356001600160401b0381111561127b5761127b611195565b8060051b61128b602082016111ab565b918252602081850181019290810190868411156112a757600080fd5b6020860192505b838310156112ed5782356001600160401b038111156112cc57600080fd5b6112db886020838a01016111db565b835250602092830192909101906112ae565b9695505050505050565b600080600080600060a0868803121561130f57600080fd5b61131886611179565b94506020860135935060408601356001600160401b0381111561133a57600080fd5b611346888289016111db565b93505060608601356001600160401b0381111561136257600080fd5b61136e88828901611251565b92505060808601356001600160401b0381111561138a57600080fd5b61139688828901611251565b9150509295509295909350565b6000806000606084860312156113b857600080fd5b6113c184611179565b92506020840135915060408401356001600160401b038111156113e357600080fd5b6113ef868287016111db565b9150509250925092565b60005b838110156114145781810151838201526020016113fc565b50506000910152565b600081518084526114358160208601602086016113f9565b601f01601f19169290920160200192915050565b6000602082016020835280845180835260408501915060408160051b86010192506020860160005b828110156114a257603f1987860301845261148d85835161141d565b94506020938401939190910190600101611471565b50929695505050505050565b600080600080608085870312156114c457600080fd5b6114cd85611179565b93506020850135925060408501356001600160401b038111156114ef57600080fd5b6114fb878288016111db565b92505060608501356001600160401b0381111561151757600080fd5b611523878288016111db565b91505092959194509250565b600080600080600060a0868803121561154757600080fd5b61155086611179565b94506020860135935060408601356001600160401b0381111561157257600080fd5b61157e888289016111db565b93505060608601356001600160401b0381111561159a57600080fd5b6115a6888289016111db565b92505060808601356001600160401b038111156115c257600080fd5b611396888289016111db565b600080600080608085870312156115e457600080fd5b8435935060208501356001600160401b0381111561160157600080fd5b8501601f8101871361161257600080fd5b80356001600160401b0381111561162857600080fd5b87602082840101111561163a57600080fd5b60208201945080935050508560808601111561165557600080fd5b509194909350909160400190565b602081526000611172602083018461141d565b83815260806020820152600061168f608083018561141d565b9050604082018360005b60028110156116b8578154835260209092019160019182019101611699565b505050949350505050565b6000602082840312156116d557600080fd5b8151801515811461117257600080fd5b60208082526022908201527f4163636f756e743a2043616e6e6f742076616c6964617465207369676e617475604082015261726560f01b606082015260800190565b634e487b7160e01b600052603260045260246000fd5b6000825161174f8184602087016113f9565b9190910192915050565b600181811c9082168061176d57607f821691505b60208210810361178d57634e487b7160e01b600052602260045260246000fd5b50919050565b60008083546117a181611759565b6001821680156117b857600181146117cd576117fd565b60ff19831686528115158202860193506117fd565b86600052602060002060005b838110156117f5578154888201526001909101906020016117d9565b505081860193505b509195945050505050565b6020808252601d908201527f4163636f756e743a204e616d652063616e6e6f7420626520656d707479000000604082015260600190565b601f82111561188957806000526020600020601f840160051c810160208510156118665750805b601f840160051c820191505b818110156118865760008155600101611872565b50505b505050565b81516001600160401b038111156118a7576118a7611195565b6118bb816118b58454611759565b8461183f565b6020601f8211600181146118f257600083156118d75750848201515b600184901b600019600386901b1c198216175b855550611886565b600084815260208120601f198516915b828110156119225787850151825560209485019460019092019101611902565b50848210156119405786840151600019600387901b60f8161c191681555b50505050600190811b01905550565b8181038181111561197057634e487b7160e01b600052601160045260246000fd5b92915050565b818103611981575050565b61198b8254611759565b6001600160401b038111156119a2576119a2611195565b6119b0816118b58454611759565b6000601f8211600181146119e257600083156118d7575081850154600184901b600019600386901b1c198216176118ea565b600085815260209020601f19841690600086815260209020845b83811015611a1c57828601548255600195860195909101906020016119fc565b5085831015611a3a5781850154600019600388901b60f8161c191681555b5050505050600190811b01905550565b634e487b7160e01b600052603160045260246000fdfea2646970667358221220db82edffccabef5931fa9051171119cc0be727febbd6e62da9cee0aaa9abfa1464736f6c634300081b0033","linkReferences":{}},"methodIdentifiers":{"addPassword(address,bytes32,bytes,string,string)":"6be45651","addPasswords(address,bytes32,bytes,string[],string[])":"10d29b0b","deletePassword(address,bytes32,bytes,string)":"62169c09","getNames()":"cd838f0f","getPassword(address,bytes32,bytes,string)":"a02380f2","getPasswords(address,bytes32,bytes)":"5fc4249a","getPrivateKey(address,bytes32,bytes)":"9d579e47","supportsInterface(bytes4)":"01ffc9a7","validateSignature(bytes32,bytes,bytes32[2])":"9074726b"},"id":26}