{"abi":[{"type":"function","name":"supportsInterface","inputs":[{"name":"interfaceId","type":"bytes4","internalType":"bytes4"}],"outputs":[{"name":"","type":"bool","internalType":"bool"}],"stateMutability":"pure"},{"type":"function","name":"validateSignature","inputs":[{"name":"challenge","type":"bytes32","internalType":"bytes32"},{"name":"signature","type":"bytes","internalType":"bytes"},{"name":"pubKey","type":"bytes32[2]","internalType":"bytes32[2]"}],"outputs":[{"name":"valid","type":"bool","internalType":"bool"}],"stateMutability":"view"}],"bytecode":{"object":"0x6080604052348015600f57600080fd5b50610a278061001f6000396000f3fe608060405234801561001057600080fd5b50600436106100365760003560e01c806301ffc9a71461003b5780639074726b14610062575b600080fd5b61004e6100493660046105f6565b610075565b604051901515815260200160405180910390f35b61004e610070366004610620565b6100ac565b60006001600160e01b03198216639074726b60e01b14806100a657506001600160e01b031982166301ffc9a760e01b145b92915050565b60006100ba858585856100c3565b95945050505050565b60008060008061010887878080601f01602080910402602001604051908101604052809392919081815260200183838082843760009201919091525061025e92505050565b919450925090507f7fffffff800000007fffffffffffffffde737d56d38bcf4279dce5617e3192a88160016020020151111561014a5760009350505050610256565b8251600560f81b90819085906020908110610167576101676106b7565b0160200151166001600160f81b031916146101885760009350505050610256565b60006101b4896040516020016101a091815260200190565b60405160208183030381529060405261028a565b905060006040518060600160405280602481526020016109ce6024913982856040516020016101e5939291906106f1565b6040516020818303038152906040529050600061020286836102b0565b905061024d73c2b78104907f722dabac4c69f826a522b2754de482868b6002806020026040519081016040528092919082600260200280828437600092019190915250610374915050565b96505050505050505b949350505050565b6060806102696105d8565b8380602001905181019061027d9190610832565b9196909550909350915050565b60606100a68260405180606001604052806040815260200161098e604091396000610456565b6000806002836040516102c391906108d4565b602060405180830381855afa1580156102e0573d6000803e3d6000fd5b5050506040513d601f19601f8201168201806040525081019061030391906108f0565b90506002848260405160200161031a929190610909565b60408051601f1981840301815290829052610334916108d4565b602060405180830381855afa158015610351573d6000803e3d6000fd5b5050506040513d601f19601f8201168201806040525081019061025691906108f0565b8151602080840151835184830151604080519485018990528401949094526060830191909152608082015260a0810191909152600090819060c0016040516020818303038152906040529050600080876001600160a01b0316836040516103db91906108d4565b600060405180830381855afa9150503d8060008114610416576040519150601f19603f3d011682016040523d82523d6000602084013e61041b565b606091505b50915091506000828015610430575060008251115b156104475750602001516001149250610256915050565b50600098975050505050505050565b6060835160000361047657506040805160208101909152600081526105d1565b6000826104a75760038551600461048d9190610941565b610498906002610958565b6104a2919061096b565b6104cc565b6003855160026104b79190610958565b6104c1919061096b565b6104cc906004610941565b905060008167ffffffffffffffff8111156104e9576104e9610734565b6040519080825280601f01601f191660200182016040528015610513576020820181803683370190505b50905060018501602082018788518901602081018051600082525b82841015610589576003840193508351603f8160121c168701518653600186019550603f81600c1c168701518653600186019550603f8160061c168701518653600186019550603f811687015186535060018501945061052e565b9052505085156105ca576003885106600181146105ad57600281146105c0576105c8565b603d6001830353603d60028303536105c8565b603d60018303535b505b5090925050505b9392505050565b60405180604001604052806002906020820280368337509192915050565b60006020828403121561060857600080fd5b81356001600160e01b0319811681146105d157600080fd5b6000806000806080858703121561063657600080fd5b84359350602085013567ffffffffffffffff81111561065457600080fd5b8501601f8101871361066557600080fd5b803567ffffffffffffffff81111561067c57600080fd5b87602082840101111561068e57600080fd5b6020919091019350915060408501608086018710156106ac57600080fd5b939692955090935050565b634e487b7160e01b600052603260045260246000fd5b60005b838110156106e85781810151838201526020016106d0565b50506000910152565b600084516107038184602089016106cd565b8451908301906107178183602089016106cd565b845191019061072a8183602088016106cd565b0195945050505050565b634e487b7160e01b600052604160045260246000fd5b60008067ffffffffffffffff84111561076557610765610734565b50604051601f19601f85018116603f0116810181811067ffffffffffffffff8211171561079457610794610734565b6040528381529050808284018510156107ac57600080fd5b6107ba8460208301856106cd565b509392505050565b600082601f8301126107d357600080fd5b6040805190810167ffffffffffffffff811182821017156107f6576107f6610734565b806040525080604084018581111561080d57600080fd5b845b8181101561082757805183526020928301920161080f565b509195945050505050565b60008060006080848603121561084757600080fd5b835167ffffffffffffffff81111561085e57600080fd5b8401601f8101861361086f57600080fd5b61087e8682516020840161074a565b935050602084015167ffffffffffffffff81111561089b57600080fd5b8401601f810186136108ac57600080fd5b6108bb8682516020840161074a565b9250506108cb85604086016107c2565b90509250925092565b600082516108e68184602087016106cd565b9190910192915050565b60006020828403121561090257600080fd5b5051919050565b6000835161091b8184602088016106cd565b9190910191825250602001919050565b634e487b7160e01b600052601160045260246000fd5b80820281158282048414176100a6576100a661092b565b808201808211156100a6576100a661092b565b60008261098857634e487b7160e01b600052601260045260246000fd5b50049056fe4142434445464748494a4b4c4d4e4f505152535455565758595a6162636465666768696a6b6c6d6e6f707172737475767778797a303132333435363738392d5f7b2274797065223a22776562617574686e2e676574222c226368616c6c656e6765223a22a26469706673582212201d45152332a331690fb0ec4427d15aa6ab221c3632c1decbf43e4a2a897b74a264736f6c634300081b0033","linkReferences":{}},"methodIdentifiers":{"supportsInterface(bytes4)":"01ffc9a7","validateSignature(bytes32,bytes,bytes32[2])":"9074726b"},"id":27}